{
  "_format": "hh-sol-artifact-1",
  "contractName": "dummy",
  "sourceName": "contracts/dummy.sol",
  "abi": [
    {
      "inputs": [
        {
          "internalType": "address",
          "name": "target",
          "type": "address"
        }
      ],
      "name": "AddressEmptyCode",
      "type": "error"
    },
    {
      "inputs": [
        {
          "internalType": "address",
          "name": "implementation",
          "type": "address"
        }
      ],
      "name": "ERC1967InvalidImplementation",
      "type": "error"
    },
    {
      "inputs": [],
      "name": "ERC1967NonPayable",
      "type": "error"
    },
    {
      "inputs": [],
      "name": "FailedInnerCall",
      "type": "error"
    },
    {
      "inputs": [],
      "name": "InvalidInitialization",
      "type": "error"
    },
    {
      "inputs": [],
      "name": "NotInitializing",
      "type": "error"
    },
    {
      "inputs": [
        {
          "internalType": "address",
          "name": "owner",
          "type": "address"
        }
      ],
      "name": "OwnableInvalidOwner",
      "type": "error"
    },
    {
      "inputs": [
        {
          "internalType": "address",
          "name": "account",
          "type": "address"
        }
      ],
      "name": "OwnableUnauthorizedAccount",
      "type": "error"
    },
    {
      "inputs": [],
      "name": "UUPSUnauthorizedCallContext",
      "type": "error"
    },
    {
      "inputs": [
        {
          "internalType": "bytes32",
          "name": "slot",
          "type": "bytes32"
        }
      ],
      "name": "UUPSUnsupportedProxiableUUID",
      "type": "error"
    },
    {
      "anonymous": false,
      "inputs": [
        {
          "indexed": false,
          "internalType": "uint64",
          "name": "version",
          "type": "uint64"
        }
      ],
      "name": "Initialized",
      "type": "event"
    },
    {
      "anonymous": false,
      "inputs": [
        {
          "indexed": true,
          "internalType": "address",
          "name": "previousOwner",
          "type": "address"
        },
        {
          "indexed": true,
          "internalType": "address",
          "name": "newOwner",
          "type": "address"
        }
      ],
      "name": "OwnershipTransferred",
      "type": "event"
    },
    {
      "anonymous": false,
      "inputs": [
        {
          "indexed": true,
          "internalType": "address",
          "name": "implementation",
          "type": "address"
        }
      ],
      "name": "Upgraded",
      "type": "event"
    },
    {
      "inputs": [],
      "name": "UPGRADE_INTERFACE_VERSION",
      "outputs": [
        {
          "internalType": "string",
          "name": "",
          "type": "string"
        }
      ],
      "stateMutability": "view",
      "type": "function"
    },
    {
      "inputs": [
        {
          "internalType": "uint256",
          "name": "_value",
          "type": "uint256"
        }
      ],
      "name": "addData",
      "outputs": [],
      "stateMutability": "nonpayable",
      "type": "function"
    },
    {
      "inputs": [
        {
          "internalType": "uint256",
          "name": "",
          "type": "uint256"
        }
      ],
      "name": "datas",
      "outputs": [
        {
          "internalType": "uint256",
          "name": "value",
          "type": "uint256"
        },
        {
          "internalType": "address",
          "name": "caller",
          "type": "address"
        }
      ],
      "stateMutability": "view",
      "type": "function"
    },
    {
      "inputs": [],
      "name": "getAllData",
      "outputs": [
        {
          "internalType": "uint256[]",
          "name": "",
          "type": "uint256[]"
        },
        {
          "internalType": "address[]",
          "name": "",
          "type": "address[]"
        }
      ],
      "stateMutability": "view",
      "type": "function"
    },
    {
      "inputs": [
        {
          "internalType": "uint256",
          "name": "_index",
          "type": "uint256"
        }
      ],
      "name": "getData",
      "outputs": [
        {
          "internalType": "uint256",
          "name": "",
          "type": "uint256"
        },
        {
          "internalType": "address",
          "name": "",
          "type": "address"
        }
      ],
      "stateMutability": "view",
      "type": "function"
    },
    {
      "inputs": [],
      "name": "initialize",
      "outputs": [],
      "stateMutability": "nonpayable",
      "type": "function"
    },
    {
      "inputs": [],
      "name": "owner",
      "outputs": [
        {
          "internalType": "address",
          "name": "",
          "type": "address"
        }
      ],
      "stateMutability": "view",
      "type": "function"
    },
    {
      "inputs": [],
      "name": "proxiableUUID",
      "outputs": [
        {
          "internalType": "bytes32",
          "name": "",
          "type": "bytes32"
        }
      ],
      "stateMutability": "view",
      "type": "function"
    },
    {
      "inputs": [],
      "name": "renounceOwnership",
      "outputs": [],
      "stateMutability": "nonpayable",
      "type": "function"
    },
    {
      "inputs": [
        {
          "internalType": "address",
          "name": "newOwner",
          "type": "address"
        }
      ],
      "name": "transferOwnership",
      "outputs": [],
      "stateMutability": "nonpayable",
      "type": "function"
    },
    {
      "inputs": [
        {
          "internalType": "address",
          "name": "newImplementation",
          "type": "address"
        },
        {
          "internalType": "bytes",
          "name": "data",
          "type": "bytes"
        }
      ],
      "name": "upgradeToAndCall",
      "outputs": [],
      "stateMutability": "payable",
      "type": "function"
    },
    {
      "inputs": [
        {
          "internalType": "uint256",
          "name": "",
          "type": "uint256"
        }
      ],
      "name": "values",
      "outputs": [
        {
          "internalType": "uint256",
          "name": "",
          "type": "uint256"
        }
      ],
      "stateMutability": "view",
      "type": "function"
    }
  ],
  "bytecode": "0x60a06040523073ffffffffffffffffffffffffffffffffffffffff1660809073ffffffffffffffffffffffffffffffffffffffff1681525034801561004357600080fd5b5060805161190c61006d600039600081816108d70152818161092c0152610ae7015261190c6000f3fe6080604052600436106100a75760003560e01c80638129fc1c116100645780638129fc1c146101b15780638da5cb5b146101c8578063ad3cb1cc146101f3578063c0a094fd1461021e578063e5d824a71461025c578063f2fde38b14610285576100a7565b80630178fe3f146100ac5780632d10fa28146100ea5780634f1ef2861461011657806352d1902d146101325780635e383d211461015d578063715018a61461019a575b600080fd5b3480156100b857600080fd5b506100d360048036038101906100ce91906111a6565b6102ae565b6040516100e1929190611223565b60405180910390f35b3480156100f657600080fd5b506100ff61030b565b60405161010d9291906113c8565b60405180910390f35b610130600480360381019061012b9190611571565b6104b6565b005b34801561013e57600080fd5b506101476104d5565b60405161015491906115e6565b60405180910390f35b34801561016957600080fd5b50610184600480360381019061017f91906111a6565b610508565b6040516101919190611601565b60405180910390f35b3480156101a657600080fd5b506101af61052c565b005b3480156101bd57600080fd5b506101c6610540565b005b3480156101d457600080fd5b506101dd6106d6565b6040516101ea919061161c565b60405180910390f35b3480156101ff57600080fd5b5061020861070e565b60405161021591906116b6565b60405180910390f35b34801561022a57600080fd5b50610245600480360381019061024091906111a6565b610747565b604051610253929190611223565b60405180910390f35b34801561026857600080fd5b50610283600480360381019061027e91906111a6565b61079b565b005b34801561029157600080fd5b506102ac60048036038101906102a791906116d8565b61084f565b005b6000806000600184815481106102c7576102c6611705565b5b9060005260206000209060020201905080600001548160010160009054906101000a900473ffffffffffffffffffffffffffffffffffffffff169250925050915091565b6060806000600180549050905060008167ffffffffffffffff81111561033457610333611446565b5b6040519080825280602002602001820160405280156103625781602001602082028036833780820191505090505b50905060008267ffffffffffffffff81111561038157610380611446565b5b6040519080825280602002602001820160405280156103af5781602001602082028036833780820191505090505b50905060005b838110156104a857600181815481106103d1576103d0611705565b5b9060005260206000209060020201600001548382815181106103f6576103f5611705565b5b6020026020010181815250506001818154811061041657610415611705565b5b906000526020600020906002020160010160009054906101000a900473ffffffffffffffffffffffffffffffffffffffff1682828151811061045b5761045a611705565b5b602002602001019073ffffffffffffffffffffffffffffffffffffffff16908173ffffffffffffffffffffffffffffffffffffffff168152505080806104a090611763565b9150506103b5565b508181945094505050509091565b6104be6108d5565b6104c7826109bb565b6104d182826109c6565b5050565b60006104df610ae5565b7f360894a13ba1a3210667c828492db98dca3e2076cc3735a920a3ca505d382bbc60001b905090565b6000818154811061051857600080fd5b906000526020600020016000915090505481565b610534610b6c565b61053e6000610bf3565b565b600061054a610cca565b905060008160000160089054906101000a900460ff1615905060008260000160009054906101000a900467ffffffffffffffff1690506000808267ffffffffffffffff161480156105985750825b9050600060018367ffffffffffffffff161480156105cd575060003073ffffffffffffffffffffffffffffffffffffffff163b145b9050811580156105db575080155b15610612576040517ff92ee8a900000000000000000000000000000000000000000000000000000000815260040160405180910390fd5b60018560000160006101000a81548167ffffffffffffffff021916908367ffffffffffffffff16021790555083156106625760018560000160086101000a81548160ff0219169083151502179055505b61066b33610cf2565b610673610d06565b83156106cf5760008560000160086101000a81548160ff0219169083151502179055507fc7f505b2f371ae2175ee4913f4499e1f2633a7b5936321eed1cdaeb6115181d260016040516106c69190611804565b60405180910390a15b5050505050565b6000806106e1610d10565b90508060000160009054906101000a900473ffffffffffffffffffffffffffffffffffffffff1691505090565b6040518060400160405280600581526020017f352e302e3000000000000000000000000000000000000000000000000000000081525081565b6001818154811061075757600080fd5b90600052602060002090600202016000915090508060000154908060010160009054906101000a900473ffffffffffffffffffffffffffffffffffffffff16905082565b6107a3610b6c565b600160405180604001604052808381526020013373ffffffffffffffffffffffffffffffffffffffff1681525090806001815401808255809150506001900390600052602060002090600202016000909190919091506000820151816000015560208201518160010160006101000a81548173ffffffffffffffffffffffffffffffffffffffff021916908373ffffffffffffffffffffffffffffffffffffffff160217905550505050565b610857610b6c565b600073ffffffffffffffffffffffffffffffffffffffff168173ffffffffffffffffffffffffffffffffffffffff16036108c95760006040517f1e4fbdf70000000000000000000000000000000000000000000000000000000081526004016108c0919061161c565b60405180910390fd5b6108d281610bf3565b50565b7f000000000000000000000000000000000000000000000000000000000000000073ffffffffffffffffffffffffffffffffffffffff163073ffffffffffffffffffffffffffffffffffffffff16148061098257507f000000000000000000000000000000000000000000000000000000000000000073ffffffffffffffffffffffffffffffffffffffff16610969610d38565b73ffffffffffffffffffffffffffffffffffffffff1614155b156109b9576040517fe07c8dba00000000000000000000000000000000000000000000000000000000815260040160405180910390fd5b565b6109c3610b6c565b50565b8173ffffffffffffffffffffffffffffffffffffffff166352d1902d6040518163ffffffff1660e01b8152600401602060405180830381865afa925050508015610a2e57506040513d601f19601f82011682018060405250810190610a2b919061184b565b60015b610a6f57816040517f4c9c8ce3000000000000000000000000000000000000000000000000000000008152600401610a66919061161c565b60405180910390fd5b7f360894a13ba1a3210667c828492db98dca3e2076cc3735a920a3ca505d382bbc60001b8114610ad657806040517faa1d49a4000000000000000000000000000000000000000000000000000000008152600401610acd91906115e6565b60405180910390fd5b610ae08383610d8f565b505050565b7f000000000000000000000000000000000000000000000000000000000000000073ffffffffffffffffffffffffffffffffffffffff163073ffffffffffffffffffffffffffffffffffffffff1614610b6a576040517fe07c8dba00000000000000000000000000000000000000000000000000000000815260040160405180910390fd5b565b610b74610e02565b73ffffffffffffffffffffffffffffffffffffffff16610b926106d6565b73ffffffffffffffffffffffffffffffffffffffff1614610bf157610bb5610e02565b6040517f118cdaa7000000000000000000000000000000000000000000000000000000008152600401610be8919061161c565b60405180910390fd5b565b6000610bfd610d10565b905060008160000160009054906101000a900473ffffffffffffffffffffffffffffffffffffffff169050828260000160006101000a81548173ffffffffffffffffffffffffffffffffffffffff021916908373ffffffffffffffffffffffffffffffffffffffff1602179055508273ffffffffffffffffffffffffffffffffffffffff168173ffffffffffffffffffffffffffffffffffffffff167f8be0079c531659141344cd1fd0a4f28419497f9722a3daafe3b4186f6b6457e060405160405180910390a3505050565b60007ff0c57e16840df040f15088dc2f81fe391c3923bec73e23a9662efc9c229c6a00905090565b610cfa610e0a565b610d0381610e4a565b50565b610d0e610e0a565b565b60007f9016d09d72d40fdae2fd8ceac6b6234c7706214fd39c1cd1e609a0528c199300905090565b6000610d667f360894a13ba1a3210667c828492db98dca3e2076cc3735a920a3ca505d382bbc60001b610ed0565b60000160009054906101000a900473ffffffffffffffffffffffffffffffffffffffff16905090565b610d9882610eda565b8173ffffffffffffffffffffffffffffffffffffffff167fbc7cd75a20ee27fd9adebab32041f755214dbc6bffa90cc0225b39da2e5c2d3b60405160405180910390a2600081511115610df557610def8282610fa7565b50610dfe565b610dfd61102b565b5b5050565b600033905090565b610e12611068565b610e48576040517fd7e6bcf800000000000000000000000000000000000000000000000000000000815260040160405180910390fd5b565b610e52610e0a565b600073ffffffffffffffffffffffffffffffffffffffff168173ffffffffffffffffffffffffffffffffffffffff1603610ec45760006040517f1e4fbdf7000000000000000000000000000000000000000000000000000000008152600401610ebb919061161c565b60405180910390fd5b610ecd81610bf3565b50565b6000819050919050565b60008173ffffffffffffffffffffffffffffffffffffffff163b03610f3657806040517f4c9c8ce3000000000000000000000000000000000000000000000000000000008152600401610f2d919061161c565b60405180910390fd5b80610f637f360894a13ba1a3210667c828492db98dca3e2076cc3735a920a3ca505d382bbc60001b610ed0565b60000160006101000a81548173ffffffffffffffffffffffffffffffffffffffff021916908373ffffffffffffffffffffffffffffffffffffffff16021790555050565b60606000808473ffffffffffffffffffffffffffffffffffffffff1684604051610fd191906118bf565b600060405180830381855af49150503d806000811461100c576040519150601f19603f3d011682016040523d82523d6000602084013e611011565b606091505b5091509150611021858383611088565b9250505092915050565b6000341115611066576040517fb398979f00000000000000000000000000000000000000000000000000000000815260040160405180910390fd5b565b6000611072610cca565b60000160089054906101000a900460ff16905090565b60608261109d5761109882611117565b61110f565b600082511480156110c5575060008473ffffffffffffffffffffffffffffffffffffffff163b145b1561110757836040517f9996b3150000000000000000000000000000000000000000000000000000000081526004016110fe919061161c565b60405180910390fd5b819050611110565b5b9392505050565b60008151111561112a5780518082602001fd5b6040517f1425ea4200000000000000000000000000000000000000000000000000000000815260040160405180910390fd5b6000604051905090565b600080fd5b600080fd5b6000819050919050565b61118381611170565b811461118e57600080fd5b50565b6000813590506111a08161117a565b92915050565b6000602082840312156111bc576111bb611166565b5b60006111ca84828501611191565b91505092915050565b6111dc81611170565b82525050565b600073ffffffffffffffffffffffffffffffffffffffff82169050919050565b600061120d826111e2565b9050919050565b61121d81611202565b82525050565b600060408201905061123860008301856111d3565b6112456020830184611214565b9392505050565b600081519050919050565b600082825260208201905092915050565b6000819050602082019050919050565b61128181611170565b82525050565b60006112938383611278565b60208301905092915050565b6000602082019050919050565b60006112b78261124c565b6112c18185611257565b93506112cc83611268565b8060005b838110156112fd5781516112e48882611287565b97506112ef8361129f565b9250506001810190506112d0565b5085935050505092915050565b600081519050919050565b600082825260208201905092915050565b6000819050602082019050919050565b61133f81611202565b82525050565b60006113518383611336565b60208301905092915050565b6000602082019050919050565b60006113758261130a565b61137f8185611315565b935061138a83611326565b8060005b838110156113bb5781516113a28882611345565b97506113ad8361135d565b92505060018101905061138e565b5085935050505092915050565b600060408201905081810360008301526113e281856112ac565b905081810360208301526113f6818461136a565b90509392505050565b61140881611202565b811461141357600080fd5b50565b600081359050611425816113ff565b92915050565b600080fd5b600080fd5b6000601f19601f8301169050919050565b7f4e487b7100000000000000000000000000000000000000000000000000000000600052604160045260246000fd5b61147e82611435565b810181811067ffffffffffffffff8211171561149d5761149c611446565b5b80604052505050565b60006114b061115c565b90506114bc8282611475565b919050565b600067ffffffffffffffff8211156114dc576114db611446565b5b6114e582611435565b9050602081019050919050565b82818337600083830152505050565b600061151461150f846114c1565b6114a6565b9050828152602081018484840111156115305761152f611430565b5b61153b8482856114f2565b509392505050565b600082601f8301126115585761155761142b565b5b8135611568848260208601611501565b91505092915050565b6000806040838503121561158857611587611166565b5b600061159685828601611416565b925050602083013567ffffffffffffffff8111156115b7576115b661116b565b5b6115c385828601611543565b9150509250929050565b6000819050919050565b6115e0816115cd565b82525050565b60006020820190506115fb60008301846115d7565b92915050565b600060208201905061161660008301846111d3565b92915050565b60006020820190506116316000830184611214565b92915050565b600081519050919050565b600082825260208201905092915050565b60005b83811015611671578082015181840152602081019050611656565b60008484015250505050565b600061168882611637565b6116928185611642565b93506116a2818560208601611653565b6116ab81611435565b840191505092915050565b600060208201905081810360008301526116d0818461167d565b905092915050565b6000602082840312156116ee576116ed611166565b5b60006116fc84828501611416565b91505092915050565b7f4e487b7100000000000000000000000000000000000000000000000000000000600052603260045260246000fd5b7f4e487b7100000000000000000000000000000000000000000000000000000000600052601160045260246000fd5b600061176e82611170565b91507fffffffffffffffffffffffffffffffffffffffffffffffffffffffffffffffff82036117a05761179f611734565b5b600182019050919050565b6000819050919050565b600067ffffffffffffffff82169050919050565b6000819050919050565b60006117ee6117e96117e4846117ab565b6117c9565b6117b5565b9050919050565b6117fe816117d3565b82525050565b600060208201905061181960008301846117f5565b92915050565b611828816115cd565b811461183357600080fd5b50565b6000815190506118458161181f565b92915050565b60006020828403121561186157611860611166565b5b600061186f84828501611836565b91505092915050565b600081519050919050565b600081905092915050565b600061189982611878565b6118a38185611883565b93506118b3818560208601611653565b80840191505092915050565b60006118cb828461188e565b91508190509291505056fea26469706673582212205b11e49109265b7fb5f7b87849b79dad434aaeb92281d05082e24640a6d76d4f64736f6c63430008150033",
  "linkReferences": {},
  "deployedLinkReferences": {}
}