{
  "_format": "hh-sol-artifact-1",
  "contractName": "MultiSigWallet",
  "sourceName": "contracts/multiSigFinal.sol",
  "abi": [
    {
      "inputs": [
        {
          "internalType": "address[]",
          "name": "_owners",
          "type": "address[]"
        },
        {
          "internalType": "uint256",
          "name": "_numConfirmationsRequired",
          "type": "uint256"
        }
      ],
      "stateMutability": "nonpayable",
      "type": "constructor"
    },
    {
      "inputs": [],
      "name": "ReentrancyGuardReentrantCall",
      "type": "error"
    },
    {
      "anonymous": false,
      "inputs": [
        {
          "indexed": true,
          "internalType": "address",
          "name": "owner",
          "type": "address"
        },
        {
          "indexed": true,
          "internalType": "uint256",
          "name": "txIndex",
          "type": "uint256"
        }
      ],
      "name": "ConfirmTransaction",
      "type": "event"
    },
    {
      "anonymous": false,
      "inputs": [
        {
          "indexed": true,
          "internalType": "address",
          "name": "sender",
          "type": "address"
        },
        {
          "indexed": false,
          "internalType": "uint256",
          "name": "amount",
          "type": "uint256"
        },
        {
          "indexed": false,
          "internalType": "uint256",
          "name": "balance",
          "type": "uint256"
        }
      ],
      "name": "Deposit",
      "type": "event"
    },
    {
      "anonymous": false,
      "inputs": [
        {
          "indexed": true,
          "internalType": "address",
          "name": "owner",
          "type": "address"
        },
        {
          "indexed": true,
          "internalType": "uint256",
          "name": "txIndex",
          "type": "uint256"
        }
      ],
      "name": "ExecuteTransaction",
      "type": "event"
    },
    {
      "anonymous": false,
      "inputs": [
        {
          "indexed": false,
          "internalType": "address",
          "name": "operator",
          "type": "address"
        },
        {
          "indexed": true,
          "internalType": "address",
          "name": "from",
          "type": "address"
        },
        {
          "indexed": false,
          "internalType": "uint256",
          "name": "tokenId",
          "type": "uint256"
        },
        {
          "indexed": true,
          "internalType": "address",
          "name": "tokenContract",
          "type": "address"
        },
        {
          "indexed": false,
          "internalType": "bytes",
          "name": "data",
          "type": "bytes"
        }
      ],
      "name": "ReceivedNFT",
      "type": "event"
    },
    {
      "anonymous": false,
      "inputs": [
        {
          "indexed": false,
          "internalType": "address",
          "name": "operator",
          "type": "address"
        },
        {
          "indexed": false,
          "internalType": "address",
          "name": "from",
          "type": "address"
        },
        {
          "indexed": false,
          "internalType": "uint256",
          "name": "id",
          "type": "uint256"
        },
        {
          "indexed": false,
          "internalType": "uint256",
          "name": "value",
          "type": "uint256"
        },
        {
          "indexed": false,
          "internalType": "bytes",
          "name": "data",
          "type": "bytes"
        }
      ],
      "name": "ReceivedNFT1155",
      "type": "event"
    },
    {
      "anonymous": false,
      "inputs": [
        {
          "indexed": true,
          "internalType": "address",
          "name": "owner",
          "type": "address"
        },
        {
          "indexed": true,
          "internalType": "uint256",
          "name": "txIndex",
          "type": "uint256"
        }
      ],
      "name": "RevokeConfirmation",
      "type": "event"
    },
    {
      "anonymous": false,
      "inputs": [
        {
          "indexed": true,
          "internalType": "address",
          "name": "oldSFSAddress",
          "type": "address"
        },
        {
          "indexed": true,
          "internalType": "address",
          "name": "newSFSAddress",
          "type": "address"
        }
      ],
      "name": "SFSAddressChanged",
      "type": "event"
    },
    {
      "anonymous": false,
      "inputs": [
        {
          "indexed": true,
          "internalType": "address",
          "name": "owner",
          "type": "address"
        },
        {
          "indexed": true,
          "internalType": "uint256",
          "name": "txIndex",
          "type": "uint256"
        },
        {
          "indexed": true,
          "internalType": "address",
          "name": "to",
          "type": "address"
        },
        {
          "indexed": false,
          "internalType": "uint256",
          "name": "value",
          "type": "uint256"
        },
        {
          "indexed": false,
          "internalType": "bytes",
          "name": "data",
          "type": "bytes"
        }
      ],
      "name": "SubmitTransaction",
      "type": "event"
    },
    {
      "anonymous": false,
      "inputs": [
        {
          "indexed": false,
          "internalType": "address",
          "name": "operator",
          "type": "address"
        },
        {
          "indexed": false,
          "internalType": "address",
          "name": "from",
          "type": "address"
        },
        {
          "indexed": false,
          "internalType": "uint256[]",
          "name": "id",
          "type": "uint256[]"
        },
        {
          "indexed": false,
          "internalType": "uint256[]",
          "name": "value",
          "type": "uint256[]"
        },
        {
          "indexed": false,
          "internalType": "bytes",
          "name": "data",
          "type": "bytes"
        }
      ],
      "name": "batchReceivedNFT1155",
      "type": "event"
    },
    {
      "stateMutability": "payable",
      "type": "fallback"
    },
    {
      "inputs": [
        {
          "internalType": "address",
          "name": "_address",
          "type": "address"
        }
      ],
      "name": "addOwner",
      "outputs": [],
      "stateMutability": "nonpayable",
      "type": "function"
    },
    {
      "inputs": [
        {
          "internalType": "address",
          "name": "_address",
          "type": "address"
        }
      ],
      "name": "addOwnerWithThreshold",
      "outputs": [],
      "stateMutability": "nonpayable",
      "type": "function"
    },
    {
      "inputs": [
        {
          "internalType": "uint256",
          "name": "_txIndex",
          "type": "uint256"
        }
      ],
      "name": "confirmTransaction",
      "outputs": [],
      "stateMutability": "nonpayable",
      "type": "function"
    },
    {
      "inputs": [
        {
          "internalType": "uint256",
          "name": "_value",
          "type": "uint256"
        }
      ],
      "name": "decreaseThreshold",
      "outputs": [],
      "stateMutability": "nonpayable",
      "type": "function"
    },
    {
      "inputs": [
        {
          "internalType": "address",
          "name": "_address",
          "type": "address"
        }
      ],
      "name": "deleteOwner",
      "outputs": [],
      "stateMutability": "nonpayable",
      "type": "function"
    },
    {
      "inputs": [
        {
          "internalType": "uint256",
          "name": "_txIndex",
          "type": "uint256"
        }
      ],
      "name": "executeTransaction",
      "outputs": [],
      "stateMutability": "nonpayable",
      "type": "function"
    },
    {
      "inputs": [],
      "name": "getContractBalance",
      "outputs": [
        {
          "internalType": "uint256",
          "name": "",
          "type": "uint256"
        }
      ],
      "stateMutability": "view",
      "type": "function"
    },
    {
      "inputs": [],
      "name": "getOwners",
      "outputs": [
        {
          "internalType": "address[]",
          "name": "",
          "type": "address[]"
        }
      ],
      "stateMutability": "view",
      "type": "function"
    },
    {
      "inputs": [
        {
          "internalType": "uint256",
          "name": "_txIndex",
          "type": "uint256"
        }
      ],
      "name": "getTransaction",
      "outputs": [
        {
          "internalType": "address",
          "name": "to",
          "type": "address"
        },
        {
          "internalType": "uint256",
          "name": "value",
          "type": "uint256"
        },
        {
          "internalType": "bytes",
          "name": "data",
          "type": "bytes"
        },
        {
          "internalType": "bool",
          "name": "executed",
          "type": "bool"
        },
        {
          "internalType": "uint256",
          "name": "numConfirmations",
          "type": "uint256"
        }
      ],
      "stateMutability": "view",
      "type": "function"
    },
    {
      "inputs": [],
      "name": "getTransactionCount",
      "outputs": [
        {
          "internalType": "uint256",
          "name": "",
          "type": "uint256"
        }
      ],
      "stateMutability": "view",
      "type": "function"
    },
    {
      "inputs": [
        {
          "internalType": "uint256",
          "name": "_value",
          "type": "uint256"
        }
      ],
      "name": "increaseThreshold",
      "outputs": [],
      "stateMutability": "nonpayable",
      "type": "function"
    },
    {
      "inputs": [
        {
          "internalType": "uint256",
          "name": "",
          "type": "uint256"
        },
        {
          "internalType": "address",
          "name": "",
          "type": "address"
        }
      ],
      "name": "isConfirmed",
      "outputs": [
        {
          "internalType": "bool",
          "name": "",
          "type": "bool"
        }
      ],
      "stateMutability": "view",
      "type": "function"
    },
    {
      "inputs": [
        {
          "internalType": "address",
          "name": "",
          "type": "address"
        }
      ],
      "name": "isOwner",
      "outputs": [
        {
          "internalType": "bool",
          "name": "",
          "type": "bool"
        }
      ],
      "stateMutability": "view",
      "type": "function"
    },
    {
      "inputs": [],
      "name": "numConfirmationsRequired",
      "outputs": [
        {
          "internalType": "uint256",
          "name": "",
          "type": "uint256"
        }
      ],
      "stateMutability": "view",
      "type": "function"
    },
    {
      "inputs": [
        {
          "internalType": "address",
          "name": "operator",
          "type": "address"
        },
        {
          "internalType": "address",
          "name": "from",
          "type": "address"
        },
        {
          "internalType": "uint256[]",
          "name": "ids",
          "type": "uint256[]"
        },
        {
          "internalType": "uint256[]",
          "name": "values",
          "type": "uint256[]"
        },
        {
          "internalType": "bytes",
          "name": "data",
          "type": "bytes"
        }
      ],
      "name": "onERC1155BatchReceived",
      "outputs": [
        {
          "internalType": "bytes4",
          "name": "",
          "type": "bytes4"
        }
      ],
      "stateMutability": "nonpayable",
      "type": "function"
    },
    {
      "inputs": [
        {
          "internalType": "address",
          "name": "operator",
          "type": "address"
        },
        {
          "internalType": "address",
          "name": "from",
          "type": "address"
        },
        {
          "internalType": "uint256",
          "name": "id",
          "type": "uint256"
        },
        {
          "internalType": "uint256",
          "name": "value",
          "type": "uint256"
        },
        {
          "internalType": "bytes",
          "name": "data",
          "type": "bytes"
        }
      ],
      "name": "onERC1155Received",
      "outputs": [
        {
          "internalType": "bytes4",
          "name": "",
          "type": "bytes4"
        }
      ],
      "stateMutability": "nonpayable",
      "type": "function"
    },
    {
      "inputs": [
        {
          "internalType": "address",
          "name": "operator",
          "type": "address"
        },
        {
          "internalType": "address",
          "name": "from",
          "type": "address"
        },
        {
          "internalType": "uint256",
          "name": "tokenId",
          "type": "uint256"
        },
        {
          "internalType": "bytes",
          "name": "data",
          "type": "bytes"
        }
      ],
      "name": "onERC721Received",
      "outputs": [
        {
          "internalType": "bytes4",
          "name": "",
          "type": "bytes4"
        }
      ],
      "stateMutability": "nonpayable",
      "type": "function"
    },
    {
      "inputs": [
        {
          "internalType": "uint256",
          "name": "",
          "type": "uint256"
        }
      ],
      "name": "owners",
      "outputs": [
        {
          "internalType": "address",
          "name": "",
          "type": "address"
        }
      ],
      "stateMutability": "view",
      "type": "function"
    },
    {
      "inputs": [],
      "name": "registerContract",
      "outputs": [
        {
          "internalType": "contract IRegister",
          "name": "",
          "type": "address"
        }
      ],
      "stateMutability": "view",
      "type": "function"
    },
    {
      "inputs": [
        {
          "internalType": "uint256",
          "name": "_txIndex",
          "type": "uint256"
        }
      ],
      "name": "revokeConfirmation",
      "outputs": [],
      "stateMutability": "nonpayable",
      "type": "function"
    },
    {
      "inputs": [
        {
          "internalType": "address",
          "name": "newSFSAddress",
          "type": "address"
        }
      ],
      "name": "setSFSAddress",
      "outputs": [],
      "stateMutability": "nonpayable",
      "type": "function"
    },
    {
      "inputs": [
        {
          "internalType": "address",
          "name": "_to",
          "type": "address"
        },
        {
          "internalType": "uint256",
          "name": "_value",
          "type": "uint256"
        },
        {
          "internalType": "bytes",
          "name": "_data",
          "type": "bytes"
        }
      ],
      "name": "submitTransaction",
      "outputs": [],
      "stateMutability": "nonpayable",
      "type": "function"
    },
    {
      "inputs": [
        {
          "internalType": "bytes4",
          "name": "interfaceId",
          "type": "bytes4"
        }
      ],
      "name": "supportsInterface",
      "outputs": [
        {
          "internalType": "bool",
          "name": "",
          "type": "bool"
        }
      ],
      "stateMutability": "pure",
      "type": "function"
    },
    {
      "inputs": [
        {
          "internalType": "uint256",
          "name": "",
          "type": "uint256"
        }
      ],
      "name": "transactions",
      "outputs": [
        {
          "internalType": "address",
          "name": "to",
          "type": "address"
        },
        {
          "internalType": "uint256",
          "name": "value",
          "type": "uint256"
        },
        {
          "internalType": "bytes",
          "name": "data",
          "type": "bytes"
        },
        {
          "internalType": "bool",
          "name": "executed",
          "type": "bool"
        },
        {
          "internalType": "uint256",
          "name": "numConfirmations",
          "type": "uint256"
        }
      ],
      "stateMutability": "view",
      "type": "function"
    },
    {
      "inputs": [
        {
          "internalType": "uint256",
          "name": "_amount",
          "type": "uint256"
        },
        {
          "internalType": "address payable",
          "name": "_address",
          "type": "address"
        }
      ],
      "name": "withdraw",
      "outputs": [],
      "stateMutability": "nonpayable",
      "type": "function"
    },
    {
      "inputs": [
        {
          "internalType": "address payable",
          "name": "_address",
          "type": "address"
        }
      ],
      "name": "withdrawAll",
      "outputs": [],
      "stateMutability": "nonpayable",
      "type": "function"
    },
    {
      "stateMutability": "payable",
      "type": "receive"
    }
  ],
  "bytecode": "0x60806040523480156200001157600080fd5b506040516200467538038062004675833981810160405281019062000037919062000563565b600160008190555060028251101562000087576040517f08c379a00000000000000000000000000000000000000000000000000000000081526004016200007e906200062a565b60405180910390fd5b60005b82518110156200028a576000838281518110620000ac57620000ab6200064c565b5b60200260200101519050600073ffffffffffffffffffffffffffffffffffffffff168173ffffffffffffffffffffffffffffffffffffffff160362000128576040517f08c379a00000000000000000000000000000000000000000000000000000000081526004016200011f90620006cb565b60405180910390fd5b600360008273ffffffffffffffffffffffffffffffffffffffff1673ffffffffffffffffffffffffffffffffffffffff16815260200190815260200160002060009054906101000a900460ff1615620001b8576040517f08c379a0000000000000000000000000000000000000000000000000000000008152600401620001af906200073d565b60405180910390fd5b6001600360008373ffffffffffffffffffffffffffffffffffffffff1673ffffffffffffffffffffffffffffffffffffffff16815260200190815260200160002060006101000a81548160ff0219169083151502179055506002819080600181540180825580915050600190039060005260206000200160009091909190916101000a81548173ffffffffffffffffffffffffffffffffffffffff021916908373ffffffffffffffffffffffffffffffffffffffff16021790555050808062000281906200078e565b9150506200008a565b506002811015620002d2576040517f08c379a0000000000000000000000000000000000000000000000000000000008152600401620002c9906200082b565b60405180910390fd5b60028110158015620002e957506002805490508111155b6200032b576040517f08c379a00000000000000000000000000000000000000000000000000000000081526004016200032290620008c3565b60405180910390fd5b806004819055505050620008e5565b6000604051905090565b600080fd5b600080fd5b600080fd5b6000601f19601f8301169050919050565b7f4e487b7100000000000000000000000000000000000000000000000000000000600052604160045260246000fd5b6200039e8262000353565b810181811067ffffffffffffffff82111715620003c057620003bf62000364565b5b80604052505050565b6000620003d56200033a565b9050620003e3828262000393565b919050565b600067ffffffffffffffff82111562000406576200040562000364565b5b602082029050602081019050919050565b600080fd5b600073ffffffffffffffffffffffffffffffffffffffff82169050919050565b600062000449826200041c565b9050919050565b6200045b816200043c565b81146200046757600080fd5b50565b6000815190506200047b8162000450565b92915050565b6000620004986200049284620003e8565b620003c9565b90508083825260208201905060208402830185811115620004be57620004bd62000417565b5b835b81811015620004eb5780620004d688826200046a565b845260208401935050602081019050620004c0565b5050509392505050565b600082601f8301126200050d576200050c6200034e565b5b81516200051f84826020860162000481565b91505092915050565b6000819050919050565b6200053d8162000528565b81146200054957600080fd5b50565b6000815190506200055d8162000532565b92915050565b600080604083850312156200057d576200057c62000344565b5b600083015167ffffffffffffffff8111156200059e576200059d62000349565b5b620005ac85828601620004f5565b9250506020620005bf858286016200054c565b9150509250929050565b600082825260208201905092915050565b7f4174206c656173742032206f776e657273206172652072657175697265642e00600082015250565b600062000612601f83620005c9565b91506200061f82620005da565b602082019050919050565b60006020820190508181036000830152620006458162000603565b9050919050565b7f4e487b7100000000000000000000000000000000000000000000000000000000600052603260045260246000fd5b7f496e76616c6964206f776e65723a207a65726f20616464726573730000000000600082015250565b6000620006b3601b83620005c9565b9150620006c0826200067b565b602082019050919050565b60006020820190508181036000830152620006e681620006a4565b9050919050565b7f4f776e6572206e6f7420756e6971756500000000000000000000000000000000600082015250565b600062000725601083620005c9565b91506200073282620006ed565b602082019050919050565b60006020820190508181036000830152620007588162000716565b9050919050565b7f4e487b7100000000000000000000000000000000000000000000000000000000600052601160045260246000fd5b60006200079b8262000528565b91507fffffffffffffffffffffffffffffffffffffffffffffffffffffffffffffffff8203620007d057620007cf6200075f565b5b600182019050919050565b7f5468726573686f6c642073686f756c64206265203e3d20320000000000000000600082015250565b600062000813601883620005c9565b91506200082082620007db565b602082019050919050565b60006020820190508181036000830152620008468162000804565b9050919050565b7f496e76616c6964206e756d626572206f6620726571756972656420636f6e666960008201527f726d6174696f6e73000000000000000000000000000000000000000000000000602082015250565b6000620008ab602883620005c9565b9150620008b8826200084d565b604082019050919050565b60006020820190508181036000830152620008de816200089c565b9050919050565b613d8080620008f56000396000f3fe6080604052600436106101845760003560e01c80637feffff3116100d1578063c0598e1a1161008a578063d0549b8511610064578063d0549b8514610663578063ee22610b1461068e578063f23a6e61146106b7578063fa09e630146106f4576101db565b8063c0598e1a146105e8578063c642747414610611578063cd5c4c701461063a576101db565b80637feffff3146104ae57806380f59a65146104d95780639ace38c214610516578063a0e67e2b14610557578063bc197c8114610582578063c01a8c84146105bf576101db565b806320ea8d861161013e5780632f54bf6e116101185780632f54bf6e146103dc57806333ea3dc8146104195780636f9fb98a1461045a5780637065cb4814610485576101db565b806320ea8d861461035f57806324797d1b146103885780632e7700f0146103b1576101db565b8062f714ce1461022d57806301ffc9a714610256578063025e7c27146102935780630476e327146102d0578063150b7a02146102f95780631e1394dd14610336576101db565b366101db573373ffffffffffffffffffffffffffffffffffffffff167f90890809c654f11d6e72a28fa60149770a0d11ec6c92319d6ceb2bb0a4ea1a1534476040516101d192919061247f565b60405180910390a2005b3373ffffffffffffffffffffffffffffffffffffffff167f90890809c654f11d6e72a28fa60149770a0d11ec6c92319d6ceb2bb0a4ea1a15344760405161022392919061247f565b60405180910390a2005b34801561023957600080fd5b50610254600480360381019061024f9190612546565b61071d565b005b34801561026257600080fd5b5061027d600480360381019061027891906125de565b610829565b60405161028a9190612626565b60405180910390f35b34801561029f57600080fd5b506102ba60048036038101906102b59190612641565b610963565b6040516102c7919061268f565b60405180910390f35b3480156102dc57600080fd5b506102f760048036038101906102f291906126d6565b6109a2565b005b34801561030557600080fd5b50610320600480360381019061031b9190612768565b610ad6565b60405161032d91906127ff565b60405180910390f35b34801561034257600080fd5b5061035d600480360381019061035891906126d6565b610b56565b005b34801561036b57600080fd5b5061038660048036038101906103819190612641565b610be8565b005b34801561039457600080fd5b506103af60048036038101906103aa9190612641565b610ec2565b005b3480156103bd57600080fd5b506103c6610f9d565b6040516103d3919061281a565b60405180910390f35b3480156103e857600080fd5b5061040360048036038101906103fe91906126d6565b610faa565b6040516104109190612626565b60405180910390f35b34801561042557600080fd5b50610440600480360381019061043b9190612641565b610fca565b6040516104519594939291906128c5565b60405180910390f35b34801561046657600080fd5b5061046f6110dd565b60405161047c919061281a565b60405180910390f35b34801561049157600080fd5b506104ac60048036038101906104a791906126d6565b6110e5565b005b3480156104ba57600080fd5b506104c361130d565b6040516104d0919061297e565b60405180910390f35b3480156104e557600080fd5b5061050060048036038101906104fb9190612999565b611333565b60405161050d9190612626565b60405180910390f35b34801561052257600080fd5b5061053d60048036038101906105389190612641565b611362565b60405161054e9594939291906128c5565b60405180910390f35b34801561056357600080fd5b5061056c61145d565b6040516105799190612a97565b60405180910390f35b34801561058e57600080fd5b506105a960048036038101906105a49190612cac565b6116c9565b6040516105b691906127ff565b60405180910390f35b3480156105cb57600080fd5b506105e660048036038101906105e19190612641565b61171d565b005b3480156105f457600080fd5b5061060f600480360381019061060a9190612641565b6119fa565b005b34801561061d57600080fd5b5061063860048036038101906106339190612d7b565b611ad9565b005b34801561064657600080fd5b50610661600480360381019061065c91906126d6565b611d4b565b005b34801561066f57600080fd5b50610678611fb3565b604051610685919061281a565b60405180910390f35b34801561069a57600080fd5b506106b560048036038101906106b09190612641565b611fb9565b005b3480156106c357600080fd5b506106de60048036038101906106d99190612dea565b6122b1565b6040516106eb91906127ff565b60405180910390f35b34801561070057600080fd5b5061071b60048036038101906107169190612e81565b612305565b005b3073ffffffffffffffffffffffffffffffffffffffff163373ffffffffffffffffffffffffffffffffffffffff161461078b576040517f08c379a000000000000000000000000000000000000000000000000000000000815260040161078290612f0b565b60405180910390fd5b610793612416565b814710156107d6576040517f08c379a00000000000000000000000000000000000000000000000000000000081526004016107cd90612f77565b60405180910390fd5b8073ffffffffffffffffffffffffffffffffffffffff166108fc839081150290604051600060405180830381858888f1935050505015801561081c573d6000803e3d6000fd5b5061082561245c565b5050565b60007f01ffc9a7000000000000000000000000000000000000000000000000000000007bffffffffffffffffffffffffffffffffffffffffffffffffffffffff1916827bffffffffffffffffffffffffffffffffffffffffffffffffffffffff191614806108f457507f150b7a02000000000000000000000000000000000000000000000000000000007bffffffffffffffffffffffffffffffffffffffffffffffffffffffff1916827bffffffffffffffffffffffffffffffffffffffffffffffffffffffff1916145b8061095c57507f4e2312e0000000000000000000000000000000000000000000000000000000007bffffffffffffffffffffffffffffffffffffffffffffffffffffffff1916827bffffffffffffffffffffffffffffffffffffffffffffffffffffffff1916145b9050919050565b6002818154811061097357600080fd5b906000526020600020016000915054906101000a900473ffffffffffffffffffffffffffffffffffffffff1681565b3073ffffffffffffffffffffffffffffffffffffffff163373ffffffffffffffffffffffffffffffffffffffff1614610a10576040517f08c379a0000000000000000000000000000000000000000000000000000000008152600401610a0790612f0b565b60405180910390fd5b6000600160009054906101000a900473ffffffffffffffffffffffffffffffffffffffff16905081600160006101000a81548173ffffffffffffffffffffffffffffffffffffffff021916908373ffffffffffffffffffffffffffffffffffffffff1602179055508173ffffffffffffffffffffffffffffffffffffffff168173ffffffffffffffffffffffffffffffffffffffff167fd1c5bdc89bdaecbe804320a8f45450f2782a914b3c777a88c7ce62214f0db5e560405160405180910390a35050565b60003373ffffffffffffffffffffffffffffffffffffffff168573ffffffffffffffffffffffffffffffffffffffff167fc9539ccc8ce848daf23bc551a6bbca27d4917f0fbb5d49082c58fbad8fe9cc4588878787604051610b3b9493929190612fc4565b60405180910390a363150b7a0260e01b905095945050505050565b3073ffffffffffffffffffffffffffffffffffffffff163373ffffffffffffffffffffffffffffffffffffffff1614610bc4576040517f08c379a0000000000000000000000000000000000000000000000000000000008152600401610bbb90612f0b565b60405180910390fd5b610bcd816110e5565b60046000815480929190610be090613033565b919050555050565b600360003373ffffffffffffffffffffffffffffffffffffffff1673ffffffffffffffffffffffffffffffffffffffff16815260200190815260200160002060009054906101000a900460ff16610c74576040517f08c379a0000000000000000000000000000000000000000000000000000000008152600401610c6b906130c7565b60405180910390fd5b806006805490508110610cbc576040517f08c379a0000000000000000000000000000000000000000000000000000000008152600401610cb390613133565b60405180910390fd5b8160068181548110610cd157610cd0613153565b5b906000526020600020906005020160030160009054906101000a900460ff1615610d30576040517f08c379a0000000000000000000000000000000000000000000000000000000008152600401610d27906131ce565b60405180910390fd5b600060068481548110610d4657610d45613153565b5b906000526020600020906005020190506005600085815260200190815260200160002060003373ffffffffffffffffffffffffffffffffffffffff1673ffffffffffffffffffffffffffffffffffffffff16815260200190815260200160002060009054906101000a900460ff16610df3576040517f08c379a0000000000000000000000000000000000000000000000000000000008152600401610dea9061323a565b60405180910390fd5b6001816004016000828254610e08919061325a565b9250508190555060006005600086815260200190815260200160002060003373ffffffffffffffffffffffffffffffffffffffff1673ffffffffffffffffffffffffffffffffffffffff16815260200190815260200160002060006101000a81548160ff021916908315150217905550833373ffffffffffffffffffffffffffffffffffffffff167ff0dca620e2e81f7841d07bcc105e1704fb01475b278a9d4c236e1c62945edd5560405160405180910390a350505050565b3073ffffffffffffffffffffffffffffffffffffffff163373ffffffffffffffffffffffffffffffffffffffff1614610f30576040517f08c379a0000000000000000000000000000000000000000000000000000000008152600401610f2790612f0b565b60405180910390fd5b600281600454610f40919061325a565b1015610f81576040517f08c379a0000000000000000000000000000000000000000000000000000000008152600401610f78906132da565b60405180910390fd5b8060046000828254610f93919061325a565b9250508190555050565b6000600680549050905090565b60036020528060005260406000206000915054906101000a900460ff1681565b6000806060600080600060068781548110610fe857610fe7613153565b5b906000526020600020906005020190508060000160009054906101000a900473ffffffffffffffffffffffffffffffffffffffff168160010154826002018360030160009054906101000a900460ff16846004015482805461104990613329565b80601f016020809104026020016040519081016040528092919081815260200182805461107590613329565b80156110c25780601f10611097576101008083540402835291602001916110c2565b820191906000526020600020905b8154815290600101906020018083116110a557829003601f168201915b50505050509250955095509550955095505091939590929450565b600047905090565b3073ffffffffffffffffffffffffffffffffffffffff163373ffffffffffffffffffffffffffffffffffffffff1614611153576040517f08c379a000000000000000000000000000000000000000000000000000000000815260040161114a90612f0b565b60405180910390fd5b600073ffffffffffffffffffffffffffffffffffffffff168173ffffffffffffffffffffffffffffffffffffffff16036111c2576040517f08c379a00000000000000000000000000000000000000000000000000000000081526004016111b9906133a6565b60405180910390fd5b600360008273ffffffffffffffffffffffffffffffffffffffff1673ffffffffffffffffffffffffffffffffffffffff16815260200190815260200160002060009054906101000a900460ff161561124f576040517f08c379a000000000000000000000000000000000000000000000000000000000815260040161124690613412565b60405180910390fd5b6001600360008373ffffffffffffffffffffffffffffffffffffffff1673ffffffffffffffffffffffffffffffffffffffff16815260200190815260200160002060006101000a81548160ff0219169083151502179055506002819080600181540180825580915050600190039060005260206000200160009091909190916101000a81548173ffffffffffffffffffffffffffffffffffffffff021916908373ffffffffffffffffffffffffffffffffffffffff16021790555050565b600160009054906101000a900473ffffffffffffffffffffffffffffffffffffffff1681565b60056020528160005260406000206020528060005260406000206000915091509054906101000a900460ff1681565b6006818154811061137257600080fd5b90600052602060002090600502016000915090508060000160009054906101000a900473ffffffffffffffffffffffffffffffffffffffff16908060010154908060020180546113c190613329565b80601f01602080910402602001604051908101604052809291908181526020018280546113ed90613329565b801561143a5780601f1061140f5761010080835404028352916020019161143a565b820191906000526020600020905b81548152906001019060200180831161141d57829003601f168201915b5050505050908060030160009054906101000a900460ff16908060040154905085565b60606000805b60028054905081101561152257600360006002838154811061148857611487613153565b5b9060005260206000200160009054906101000a900473ffffffffffffffffffffffffffffffffffffffff1673ffffffffffffffffffffffffffffffffffffffff1673ffffffffffffffffffffffffffffffffffffffff16815260200190815260200160002060009054906101000a900460ff161561150f57818061150b90613033565b9250505b808061151a90613033565b915050611463565b5060008167ffffffffffffffff81111561153f5761153e612ab9565b5b60405190808252806020026020018201604052801561156d5781602001602082028036833780820191505090505b5090506000805b6002805490508110156116bf57600360006002838154811061159957611598613153565b5b9060005260206000200160009054906101000a900473ffffffffffffffffffffffffffffffffffffffff1673ffffffffffffffffffffffffffffffffffffffff1673ffffffffffffffffffffffffffffffffffffffff16815260200190815260200160002060009054906101000a900460ff16156116ac576002818154811061162557611624613153565b5b9060005260206000200160009054906101000a900473ffffffffffffffffffffffffffffffffffffffff1683838151811061166357611662613153565b5b602002602001019073ffffffffffffffffffffffffffffffffffffffff16908173ffffffffffffffffffffffffffffffffffffffff168152505081806116a890613033565b9250505b80806116b790613033565b915050611574565b5081935050505090565b60007fe524964b9927ebb0b8b7752444cdc2e87537594a17f390ad1a43318d534885df86868686866040516117029594939291906134f0565b60405180910390a163bc197c8160e01b905095945050505050565b600360003373ffffffffffffffffffffffffffffffffffffffff1673ffffffffffffffffffffffffffffffffffffffff16815260200190815260200160002060009054906101000a900460ff166117a9576040517f08c379a00000000000000000000000000000000000000000000000000000000081526004016117a0906130c7565b60405180910390fd5b8060068054905081106117f1576040517f08c379a00000000000000000000000000000000000000000000000000000000081526004016117e890613133565b60405180910390fd5b816006818154811061180657611805613153565b5b906000526020600020906005020160030160009054906101000a900460ff1615611865576040517f08c379a000000000000000000000000000000000000000000000000000000000815260040161185c906131ce565b60405180910390fd5b826005600082815260200190815260200160002060003373ffffffffffffffffffffffffffffffffffffffff1673ffffffffffffffffffffffffffffffffffffffff16815260200190815260200160002060009054906101000a900460ff1615611904576040517f08c379a00000000000000000000000000000000000000000000000000000000081526004016118fb906135a4565b60405180910390fd5b60006006858154811061191a57611919613153565b5b90600052602060002090600502019050600181600401600082825461193f91906135c4565b9250508190555060016005600087815260200190815260200160002060003373ffffffffffffffffffffffffffffffffffffffff1673ffffffffffffffffffffffffffffffffffffffff16815260200190815260200160002060006101000a81548160ff021916908315150217905550843373ffffffffffffffffffffffffffffffffffffffff167f5cbe105e36805f7820e291f799d5794ff948af2a5f664e580382defb6339004160405160405180910390a35050505050565b3073ffffffffffffffffffffffffffffffffffffffff163373ffffffffffffffffffffffffffffffffffffffff1614611a68576040517f08c379a0000000000000000000000000000000000000000000000000000000008152600401611a5f90612f0b565b60405180910390fd5b60028054905081600454611a7c91906135c4565b1115611abd576040517f08c379a0000000000000000000000000000000000000000000000000000000008152600401611ab49061366a565b60405180910390fd5b8060046000828254611acf91906135c4565b9250508190555050565b600360003373ffffffffffffffffffffffffffffffffffffffff1673ffffffffffffffffffffffffffffffffffffffff16815260200190815260200160002060009054906101000a900460ff16611b65576040517f08c379a0000000000000000000000000000000000000000000000000000000008152600401611b5c906130c7565b60405180910390fd5b600073ffffffffffffffffffffffffffffffffffffffff168373ffffffffffffffffffffffffffffffffffffffff1603611bd4576040517f08c379a0000000000000000000000000000000000000000000000000000000008152600401611bcb906136d6565b60405180910390fd5b6000600680549050905060066040518060a001604052808673ffffffffffffffffffffffffffffffffffffffff1681526020018581526020018481526020016000151581526020016000815250908060018154018082558091505060019003906000526020600020906005020160009091909190915060008201518160000160006101000a81548173ffffffffffffffffffffffffffffffffffffffff021916908373ffffffffffffffffffffffffffffffffffffffff160217905550602082015181600101556040820151816002019081611cb09190613898565b5060608201518160030160006101000a81548160ff0219169083151502179055506080820151816004015550508373ffffffffffffffffffffffffffffffffffffffff16813373ffffffffffffffffffffffffffffffffffffffff167fd5a05bf70715ad82a09a756320284a1b54c9ff74cd0f8cce6219e79b563fe59d8686604051611d3d92919061396a565b60405180910390a450505050565b3073ffffffffffffffffffffffffffffffffffffffff163373ffffffffffffffffffffffffffffffffffffffff1614611db9576040517f08c379a0000000000000000000000000000000000000000000000000000000008152600401611db090612f0b565b60405180910390fd5b600073ffffffffffffffffffffffffffffffffffffffff168173ffffffffffffffffffffffffffffffffffffffff1603611e28576040517f08c379a0000000000000000000000000000000000000000000000000000000008152600401611e1f906139e6565b60405180910390fd5b600360008273ffffffffffffffffffffffffffffffffffffffff1673ffffffffffffffffffffffffffffffffffffffff16815260200190815260200160002060009054906101000a900460ff16611eb4576040517f08c379a0000000000000000000000000000000000000000000000000000000008152600401611eab90613a52565b60405180910390fd5b6002808054905011611efb576040517f08c379a0000000000000000000000000000000000000000000000000000000008152600401611ef290613abe565b60405180910390fd5b600260045411611f40576040517f08c379a0000000000000000000000000000000000000000000000000000000008152600401611f37906132da565b60405180910390fd5b6000600360008373ffffffffffffffffffffffffffffffffffffffff1673ffffffffffffffffffffffffffffffffffffffff16815260200190815260200160002060006101000a81548160ff02191690831515021790555060046000815480929190611fab90613ade565b919050555050565b60045481565b600360003373ffffffffffffffffffffffffffffffffffffffff1673ffffffffffffffffffffffffffffffffffffffff16815260200190815260200160002060009054906101000a900460ff16612045576040517f08c379a000000000000000000000000000000000000000000000000000000000815260040161203c906130c7565b60405180910390fd5b80600680549050811061208d576040517f08c379a000000000000000000000000000000000000000000000000000000000815260040161208490613133565b60405180910390fd5b81600681815481106120a2576120a1613153565b5b906000526020600020906005020160030160009054906101000a900460ff1615612101576040517f08c379a00000000000000000000000000000000000000000000000000000000081526004016120f8906131ce565b60405180910390fd5b60006006848154811061211757612116613153565b5b9060005260206000209060050201905060045481600401541015612170576040517f08c379a000000000000000000000000000000000000000000000000000000000815260040161216790613b53565b60405180910390fd5b60018160030160006101000a81548160ff02191690831515021790555060008160000160009054906101000a900473ffffffffffffffffffffffffffffffffffffffff1673ffffffffffffffffffffffffffffffffffffffff168260010154836002016040516121e09190613c01565b60006040518083038185875af1925050503d806000811461221d576040519150601f19603f3d011682016040523d82523d6000602084013e612222565b606091505b5050905080612266576040517f08c379a000000000000000000000000000000000000000000000000000000000815260040161225d90613c64565b60405180910390fd5b843373ffffffffffffffffffffffffffffffffffffffff167f5445f318f4f5fcfb66592e68e0cc5822aa15664039bd5f0ffde24c5a8142b1ac60405160405180910390a35050505050565b60007fdf8dcf5abaec67a60d4f71204a49974911b1c12c108a80122f142c330b5a94dc86868686866040516122ea959493929190613c84565b60405180910390a163f23a6e6160e01b905095945050505050565b3073ffffffffffffffffffffffffffffffffffffffff163373ffffffffffffffffffffffffffffffffffffffff1614612373576040517f08c379a000000000000000000000000000000000000000000000000000000000815260040161236a90612f0b565b60405180910390fd5b61237b612416565b6000479050600081116123c3576040517f08c379a00000000000000000000000000000000000000000000000000000000081526004016123ba90613d2a565b60405180910390fd5b8173ffffffffffffffffffffffffffffffffffffffff166108fc829081150290604051600060405180830381858888f19350505050158015612409573d6000803e3d6000fd5b505061241361245c565b50565b600260005403612452576040517f3ee5aeb500000000000000000000000000000000000000000000000000000000815260040160405180910390fd5b6002600081905550565b6001600081905550565b6000819050919050565b61247981612466565b82525050565b60006040820190506124946000830185612470565b6124a16020830184612470565b9392505050565b6000604051905090565b600080fd5b600080fd5b6124c581612466565b81146124d057600080fd5b50565b6000813590506124e2816124bc565b92915050565b600073ffffffffffffffffffffffffffffffffffffffff82169050919050565b6000612513826124e8565b9050919050565b61252381612508565b811461252e57600080fd5b50565b6000813590506125408161251a565b92915050565b6000806040838503121561255d5761255c6124b2565b5b600061256b858286016124d3565b925050602061257c85828601612531565b9150509250929050565b60007fffffffff0000000000000000000000000000000000000000000000000000000082169050919050565b6125bb81612586565b81146125c657600080fd5b50565b6000813590506125d8816125b2565b92915050565b6000602082840312156125f4576125f36124b2565b5b6000612602848285016125c9565b91505092915050565b60008115159050919050565b6126208161260b565b82525050565b600060208201905061263b6000830184612617565b92915050565b600060208284031215612657576126566124b2565b5b6000612665848285016124d3565b91505092915050565b6000612679826124e8565b9050919050565b6126898161266e565b82525050565b60006020820190506126a46000830184612680565b92915050565b6126b38161266e565b81146126be57600080fd5b50565b6000813590506126d0816126aa565b92915050565b6000602082840312156126ec576126eb6124b2565b5b60006126fa848285016126c1565b91505092915050565b600080fd5b600080fd5b600080fd5b60008083601f84011261272857612727612703565b5b8235905067ffffffffffffffff81111561274557612744612708565b5b6020830191508360018202830111156127615761276061270d565b5b9250929050565b600080600080600060808688031215612784576127836124b2565b5b6000612792888289016126c1565b95505060206127a3888289016126c1565b94505060406127b4888289016124d3565b935050606086013567ffffffffffffffff8111156127d5576127d46124b7565b5b6127e188828901612712565b92509250509295509295909350565b6127f981612586565b82525050565b600060208201905061281460008301846127f0565b92915050565b600060208201905061282f6000830184612470565b92915050565b600081519050919050565b600082825260208201905092915050565b60005b8381101561286f578082015181840152602081019050612854565b60008484015250505050565b6000601f19601f8301169050919050565b600061289782612835565b6128a18185612840565b93506128b1818560208601612851565b6128ba8161287b565b840191505092915050565b600060a0820190506128da6000830188612680565b6128e76020830187612470565b81810360408301526128f9818661288c565b90506129086060830185612617565b6129156080830184612470565b9695505050505050565b6000819050919050565b600061294461293f61293a846124e8565b61291f565b6124e8565b9050919050565b600061295682612929565b9050919050565b60006129688261294b565b9050919050565b6129788161295d565b82525050565b6000602082019050612993600083018461296f565b92915050565b600080604083850312156129b0576129af6124b2565b5b60006129be858286016124d3565b92505060206129cf858286016126c1565b9150509250929050565b600081519050919050565b600082825260208201905092915050565b6000819050602082019050919050565b612a0e8161266e565b82525050565b6000612a208383612a05565b60208301905092915050565b6000602082019050919050565b6000612a44826129d9565b612a4e81856129e4565b9350612a59836129f5565b8060005b83811015612a8a578151612a718882612a14565b9750612a7c83612a2c565b925050600181019050612a5d565b5085935050505092915050565b60006020820190508181036000830152612ab18184612a39565b905092915050565b7f4e487b7100000000000000000000000000000000000000000000000000000000600052604160045260246000fd5b612af18261287b565b810181811067ffffffffffffffff82111715612b1057612b0f612ab9565b5b80604052505050565b6000612b236124a8565b9050612b2f8282612ae8565b919050565b600067ffffffffffffffff821115612b4f57612b4e612ab9565b5b602082029050602081019050919050565b6000612b73612b6e84612b34565b612b19565b90508083825260208201905060208402830185811115612b9657612b9561270d565b5b835b81811015612bbf5780612bab88826124d3565b845260208401935050602081019050612b98565b5050509392505050565b600082601f830112612bde57612bdd612703565b5b8135612bee848260208601612b60565b91505092915050565b600080fd5b600067ffffffffffffffff821115612c1757612c16612ab9565b5b612c208261287b565b9050602081019050919050565b82818337600083830152505050565b6000612c4f612c4a84612bfc565b612b19565b905082815260208101848484011115612c6b57612c6a612bf7565b5b612c76848285612c2d565b509392505050565b600082601f830112612c9357612c92612703565b5b8135612ca3848260208601612c3c565b91505092915050565b600080600080600060a08688031215612cc857612cc76124b2565b5b6000612cd6888289016126c1565b9550506020612ce7888289016126c1565b945050604086013567ffffffffffffffff811115612d0857612d076124b7565b5b612d1488828901612bc9565b935050606086013567ffffffffffffffff811115612d3557612d346124b7565b5b612d4188828901612bc9565b925050608086013567ffffffffffffffff811115612d6257612d616124b7565b5b612d6e88828901612c7e565b9150509295509295909350565b600080600060608486031215612d9457612d936124b2565b5b6000612da2868287016126c1565b9350506020612db3868287016124d3565b925050604084013567ffffffffffffffff811115612dd457612dd36124b7565b5b612de086828701612c7e565b9150509250925092565b600080600080600060a08688031215612e0657612e056124b2565b5b6000612e14888289016126c1565b9550506020612e25888289016126c1565b9450506040612e36888289016124d3565b9350506060612e47888289016124d3565b925050608086013567ffffffffffffffff811115612e6857612e676124b7565b5b612e7488828901612c7e565b9150509295509295909350565b600060208284031215612e9757612e966124b2565b5b6000612ea584828501612531565b91505092915050565b600082825260208201905092915050565b7f6e6f742057616c6c657400000000000000000000000000000000000000000000600082015250565b6000612ef5600a83612eae565b9150612f0082612ebf565b602082019050919050565b60006020820190508181036000830152612f2481612ee8565b9050919050565b7f496e73756666696369656e742066756e64730000000000000000000000000000600082015250565b6000612f61601283612eae565b9150612f6c82612f2b565b602082019050919050565b60006020820190508181036000830152612f9081612f54565b9050919050565b6000612fa38385612840565b9350612fb0838584612c2d565b612fb98361287b565b840190509392505050565b6000606082019050612fd96000830187612680565b612fe66020830186612470565b8181036040830152612ff9818486612f97565b905095945050505050565b7f4e487b7100000000000000000000000000000000000000000000000000000000600052601160045260246000fd5b600061303e82612466565b91507fffffffffffffffffffffffffffffffffffffffffffffffffffffffffffffffff82036130705761306f613004565b5b600182019050919050565b7f6e6f74206f776e65720000000000000000000000000000000000000000000000600082015250565b60006130b1600983612eae565b91506130bc8261307b565b602082019050919050565b600060208201905081810360008301526130e0816130a4565b9050919050565b7f747820646f6573206e6f74206578697374000000000000000000000000000000600082015250565b600061311d601183612eae565b9150613128826130e7565b602082019050919050565b6000602082019050818103600083015261314c81613110565b9050919050565b7f4e487b7100000000000000000000000000000000000000000000000000000000600052603260045260246000fd5b7f747820616c726561647920657865637574656400000000000000000000000000600082015250565b60006131b8601383612eae565b91506131c382613182565b602082019050919050565b600060208201905081810360008301526131e7816131ab565b9050919050565b7f7478206e6f7420636f6e6669726d656400000000000000000000000000000000600082015250565b6000613224601083612eae565b915061322f826131ee565b602082019050919050565b6000602082019050818103600083015261325381613217565b9050919050565b600061326582612466565b915061327083612466565b925082820390508181111561328857613287613004565b5b92915050565b7f5468726573686f6c642063616e6e6f7420676f2062656c6f7720320000000000600082015250565b60006132c4601b83612eae565b91506132cf8261328e565b602082019050919050565b600060208201905081810360008301526132f3816132b7565b9050919050565b7f4e487b7100000000000000000000000000000000000000000000000000000000600052602260045260246000fd5b6000600282049050600182168061334157607f821691505b602082108103613354576133536132fa565b5b50919050565b7f616464726573732063616e2774206265206e756c6c0000000000000000000000600082015250565b6000613390601583612eae565b915061339b8261335a565b602082019050919050565b600060208201905081810360008301526133bf81613383565b9050919050565b7f4f776e657220616c726561647920616464656400000000000000000000000000600082015250565b60006133fc601383612eae565b9150613407826133c6565b602082019050919050565b6000602082019050818103600083015261342b816133ef565b9050919050565b600081519050919050565b600082825260208201905092915050565b6000819050602082019050919050565b61346781612466565b82525050565b6000613479838361345e565b60208301905092915050565b6000602082019050919050565b600061349d82613432565b6134a7818561343d565b93506134b28361344e565b8060005b838110156134e35781516134ca888261346d565b97506134d583613485565b9250506001810190506134b6565b5085935050505092915050565b600060a0820190506135056000830188612680565b6135126020830187612680565b81810360408301526135248186613492565b905081810360608301526135388185613492565b9050818103608083015261354c818461288c565b90509695505050505050565b7f747820616c726561647920636f6e6669726d6564000000000000000000000000600082015250565b600061358e601483612eae565b915061359982613558565b602082019050919050565b600060208201905081810360008301526135bd81613581565b9050919050565b60006135cf82612466565b91506135da83612466565b92508282019050808211156135f2576135f1613004565b5b92915050565b7f5468726573686f6c642063616e277420657863656564732074686520746f746160008201527f6c206e756d626572206f66206f776e6572730000000000000000000000000000602082015250565b6000613654603283612eae565b915061365f826135f8565b604082019050919050565b6000602082019050818103600083015261368381613647565b9050919050565b7f43616e2774207375626d697420746f205a65726f206164647265737300000000600082015250565b60006136c0601c83612eae565b91506136cb8261368a565b602082019050919050565b600060208201905081810360008301526136ef816136b3565b9050919050565b60008190508160005260206000209050919050565b60006020601f8301049050919050565b600082821b905092915050565b6000600883026137587fffffffffffffffffffffffffffffffffffffffffffffffffffffffffffffffff8261371b565b613762868361371b565b95508019841693508086168417925050509392505050565b600061379561379061378b84612466565b61291f565b612466565b9050919050565b6000819050919050565b6137af8361377a565b6137c36137bb8261379c565b848454613728565b825550505050565b600090565b6137d86137cb565b6137e38184846137a6565b505050565b5b81811015613807576137fc6000826137d0565b6001810190506137e9565b5050565b601f82111561384c5761381d816136f6565b6138268461370b565b81016020851015613835578190505b6138496138418561370b565b8301826137e8565b50505b505050565b600082821c905092915050565b600061386f60001984600802613851565b1980831691505092915050565b6000613888838361385e565b9150826002028217905092915050565b6138a182612835565b67ffffffffffffffff8111156138ba576138b9612ab9565b5b6138c48254613329565b6138cf82828561380b565b600060209050601f83116001811461390257600084156138f0578287015190505b6138fa858261387c565b865550613962565b601f198416613910866136f6565b60005b8281101561393857848901518255600182019150602085019450602081019050613913565b868310156139555784890151613951601f89168261385e565b8355505b6001600288020188555050505b505050505050565b600060408201905061397f6000830185612470565b8181036020830152613991818461288c565b90509392505050565b7f5a65726f2061646472657373206e6f7420616c6c6f7765640000000000000000600082015250565b60006139d0601883612eae565b91506139db8261399a565b602082019050919050565b600060208201905081810360008301526139ff816139c3565b9050919050565b7f4f776e657220646f65736e277420657869737400000000000000000000000000600082015250565b6000613a3c601383612eae565b9150613a4782613a06565b602082019050919050565b60006020820190508181036000830152613a6b81613a2f565b9050919050565b7f43616e6e6f742064656c65746520746865206c6173742074776f206f776e6572600082015250565b6000613aa8602083612eae565b9150613ab382613a72565b602082019050919050565b60006020820190508181036000830152613ad781613a9b565b9050919050565b6000613ae982612466565b915060008203613afc57613afb613004565b5b600182039050919050565b7f496e73756666696369656e7420636f6e6669726d6174696f6e73000000000000600082015250565b6000613b3d601a83612eae565b9150613b4882613b07565b602082019050919050565b60006020820190508181036000830152613b6c81613b30565b9050919050565b600081905092915050565b60008154613b8b81613329565b613b958186613b73565b94506001821660008114613bb05760018114613bc557613bf8565b60ff1983168652811515820286019350613bf8565b613bce856136f6565b60005b83811015613bf057815481890152600182019150602081019050613bd1565b838801955050505b50505092915050565b6000613c0d8284613b7e565b915081905092915050565b7f7478206661696c65640000000000000000000000000000000000000000000000600082015250565b6000613c4e600983612eae565b9150613c5982613c18565b602082019050919050565b60006020820190508181036000830152613c7d81613c41565b9050919050565b600060a082019050613c996000830188612680565b613ca66020830187612680565b613cb36040830186612470565b613cc06060830185612470565b8181036080830152613cd2818461288c565b90509695505050505050565b7f4e6f2066756e647320746f207769746864726177000000000000000000000000600082015250565b6000613d14601483612eae565b9150613d1f82613cde565b602082019050919050565b60006020820190508181036000830152613d4381613d07565b905091905056fea264697066735822122074c7cb501987af7ba312c2a4c321d10f03b4c9d6482f24d2b02dd133657261bb64736f6c63430008150033",
  "linkReferences": {},
  "deployedLinkReferences": {}
}